:100000006F00B02800000000F2010000F6010000BF
:1000100000000000000000000000000000000000E0
:1000200000000000000000000000000000000000D0
:10003000580A0000000000005A0A000000000000FA
:100040005C0A00005E0A0000600A0000620A00000C
:10005000640A0000660A00002C0400006A0A00001E
:100060006C0A00006E0A0000700A0000720A0000AC
:10007000740A0000760A0000780A00007A0A00007C
:100080007C0A00007E0A0000800A0000820A00004C
:10009000840A0000860A0000880A000000000000B0
:1000A000511126C022C206C4828282441244A24058
:1000B000310182802A86014593F6150091C232955E
:1000C00085810606F5F9828000000000634E050276
:1000D00063C305042E86AA857D5515C285466378BF
:1000E000B6006356C00006068606E36CB6FE014500
:1000F00063E4C500918D558D85820582F5FA828075
:100100008682C93F2E8582823305A04063D70500D1
:10011000B305B040C1B7B305B0408682653F330533
:10012000A0408282868263C70500634905005D376F
:100130002E858282B305B040E35B05FE3305A04007
:10014000513F3305B040828200003D432A876373EC
:10015000C3029377F700BDEFADE5937606FF3D8AC6
:10016000BA960CC34CC30CC74CC74107E36BD7FE10
:1001700011E28280B306C3408A0697020000969679
:100180006780A6002307B700A306B7002306B700C1
:10019000A305B7002305B700A304B7002304B700E5
:1001A000A303B7002303B700A302B7002302B700DD
:1001B000A301B7002301B700A300B7002300B700D5
:1001C000828093F5F50F93968500D58D9396050162
:1001D000D58D61B793962700970200009696868288
:1001E000E78086FA9680C1171D8F3E96E374C3F8A8
:1001F000A5B77300203001A0EFF29FEA116511113D
:1002000085451305050202C002C202C402C602C827
:1002100002CA02CCEF00B073930700022310F10072
:10022000371401408D473EC28A85E14713050440DB
:100230003EC4EF001039930700042310F1008A85B3
:100240009147130504403EC4EF00B037F1673744CF
:100250000140938707203EC66C00B7070C001305CA
:1002600004803ECA02C8231C0100EF00D07F8545F0
:1002700013050480EF10A00D710105BDEFF25FE2E0
:100280001301C1FD614681456800C13585451145B1
:1002900002C002C202C4EF00906B85454145EF00E9
:1002A000106B854513050002EF00706A8545130544
:1002B0000020EF00D0693165EF00505C3714014039
:1002C0009947130504808A852310F10002C4EF00CA
:1002D000502FC1448A85371501402310910002C474
:1002E000EF00302E8A851305044023109100372437
:1002F000014002C4EF00F02C13050440EF00B000F1
:1003000085473EC8B70706003ECC6C0091471305F1
:1003100004402300F10202C602CA02CEEF0010011F
:10032000B705000213050440EF00D01685451305FC
:100330000440EF00B005854513050440EF001004AC
:1003400013050440EF00B005930404402685EF0038
:10035000B0056DFD1305044037240140EF00500542
:10036000130404402285EF0050056DFD1301410286
:100370002DBBEFF2FFD21301C1FC2A842EC2B2843E
:1003800081451306C002280036C0C13385450545A6
:10039000EF00105A2285EF00D011924782462C00C0
:1003A0003EC4930700083ECE930700103ED093074B
:1003B00000403ED2930700023ED422858D6726C6B8
:1003C00036CA3ED602C802CC02D8EF00B0171301DD
:1003D0004103E1B9EFF2DFCC51112E84AA848545A7
:1003E000054502C002C223140100EF0030588A857F
:1003F00037050040231291002310810023130100D0
:1004000023110100EF00505A854537050040EF00E9
:10041000B0619305000237050040EF00D0628545CA
:1004200037050040EF00905E310141B11145EF000A
:1004300030188547631DF504239201C281479386D6
:1004400041C21385018213860181138781C3232052
:1004500007003E8313071004938581C37D1742076D
:10046000418341EF8C411397270032970CC38507D6
:100470001147E39CE7FC130600042393C1C22390B9
:10048000F6000547114523A0E1C2EF00101309450E
:10049000EF00101285476310F506239201C2014751
:1004A000138641C21385018293850181938781C39D
:1004B00023A0070093061004BA87938281C3FD1618
:1004C000C206C18293834700A9E683A60200931760
:1004D0002700AE9794C305079147E319F7FC9306ED
:1004E00000042393D1C22310E6000547094523A049
:1004F000E1C2EF00900C7300203093121300AA9217
:1005000083D0020083A205001103869223A0550028
:10051000B1B7938707108607AA9783D0070083A7F0
:100520000200869723A0F2009E8751BFEFF25FB7CB
:1005300051110945EF0030347D21EF007064716581
:1005400013050520EF001067B707002083A5C70239
:10055000373500001305C50BEF100035EF00C074F0
:10056000AA85373500001305C50CEF10E03369315B
:100570007D240145E924373600001306C60D814568
:100580000145B52EE53937240140B70402409306F2
:10059000002013860182138584009305C444D13B57
:1005A000138584008545EF00607D13858400054632
:1005B0009145EF00E07D1385840005468945EF00F5
:1005C000207DB7E700E03707400023A0E7109D46F5
:1005D0000546814513050440ED239D4609468545A2
:1005E00013050440F92B9D460D468945130504402B
:1005F000C92B9D4611469D4513050440D9238545C9
:1006000013050440EF00806785659385F52B25452C
:10061000D133B737000083A4870B938701C2984377
:100620006DDF23A007000144931624009387018106
:10063000B69788430D671307870A36973EC43AC0BA
:10064000EF10401202470C43EF007063A685EF00E5
:100650001063EF10C00B9305803E2AC25534A945A4
:10066000953C92462AC09305803E3685A5340247C4
:10067000B7350000AA8622869385850E138581C230
:10068000EF10C0341375F40F138681C28145852C99
:10069000A247373500001305450F8C430504EF10C2
:1006A000A0209147E312F4F8373500001305C50F79
:1006B000EF10E0309DB7EFF2BF9EB75700407111C9
:1006C000AA842E84138707403A85B7050200EF00FD
:1006D0007017B7570040138707407DF585453A8569
:1006E000EF00700DB7070300850737570040BE8540
:1006F00013050740EF007013B7070300375700409A
:10070000850765D501469305800713050740EF006F
:100710009010B70707009387270837550040BE851C
:1007200013050540EF007010B707070093872708EF
:100730006DD5B38784003EC03754004083C50400A4
:10074000B757004013850740EF00900C37070700AC
:1007500013074708B7570040BA8513850740EF00D5
:10076000D00CB7070700138747086DD5824785046B
:10077000E396F4FC854513050440EF00B005110134
:100780006FF0BF92EFF2DF911301C1FD2AC22EC0BC
:100790004545854502C402C602C802CA02CC02CE43
:1007A00002D0EF00D01A854537052000EF00101C5D
:1007B0009146F1440D442C00371501402314D1001B
:1007C00026C822C6FD2B89462C003715014023146C
:1007D000D10026C822C6F52382471247375400406D
:1007E000231EF100930700403ACA231FF100370788
:1007F000FFBF91674C08130504403ACC2310F10267
:10080000692D130504408545EF00207985451305C2
:100810000440EF00007E130141026FF01F89EFF2E8
:100820003F886165930580071305056AA13F370579
:100830000020ED4513050500BD3D6FF01F87EFF269
:100840003F86B727205F6111938707103EC093074B
:1008500020022A842312F1009D458D470A85230337
:10086000F100913D93070004A30081002300F100F3
:10087000130400107D14420489450A854180253DFA
:1008800075F821016FF07F82EFF29F81511193077C
:10089000F00593850502A303F10009679307200281
:1008A000130707102303B1002304F100A304A100E0
:1008B0008D479D45480032C02312E1002305F10019
:1008C000DD3B0246930700042302F1009317260044
:1008D000B2970D66130606103E9619478547834565
:1008E00006F65400BE962380B60085070506E398F9
:1008F000E7FE48009945C13331016FF00FFBEFF27D
:100900002FFA7111AA872E84B28403C6040001E66F
:1009100011016FF08FF9A2853E853EC01904AD37F5
:1009200085041374F40F8247CDB7B717024098437C
:10093000B706FFFC1367170098C3D843758FD8C359
:100940009843B706F7FEFD16758F98C39843B70610
:10095000FCFFFD16758F98C3D843C176FD16758FC1
:10096000D8C337079F0098C7984F1367070298CFDF
:100970003717014003260740930507401376F6F02A
:100980002320C74003260740136606082320C740DC
:10099000094798C9372702401043719A10C3104382
:1009A0001366160010C3D843D8C3D843F98ED4C3F6
:1009B000D843B7060001D8C39843558F98C39843CE
:1009C00093166700E3DD06FED843B7160240719B1D
:1009D000D8C3D84313672700D8C32147DC42B18B63
:1009E000E39EE7FE8280EFF2AFEB371702405C43F5
:1009F000370400209146B18B1304C4026385D700ED
:100A0000A1466383D704B7376E01938707601CC084
:100A1000B7160240DC420840918313F7F700B7078E
:100A200000209387C701BA9783C50700DC4293F57E
:100A3000F50F93F707083357B50081E7EFF08FE91B
:100A40002A8718C06FF06FE65C43B777DC029387A4
:100A500007C075BF01A001A001A001A001A001A0D5
:100A600001A001A001A001A001A001A001A001A07E
:100A700001A001A001A001A001A001A001A001A06E
:100A800001A001A001A001A001A097010020938175
:100A9000E1E2138181F4173500001305E5A297F513
:100AA000FF1F938525561386818063FAC500832234
:100AB000050023A0550011059105E3EAC5FE138545
:100AC0008180938581C46377B500232005001105DB
:100AD000E36DB5FE93020008739002308D4273906F
:100AE000428097F2FFFF9382E25193E232007390CB
:100AF0005230EFF09FE397020000938262A373905D
:100B0000123473002030B727014093870740631EDB
:100B1000F500EFF2EFD8854513050020BD2581458E
:100B2000130500209D256FF04FD882805C41370768
:100B3000F1FF1307F7EF7D8FDC419441A207D58FBA
:100B4000D98F5CC11C4537F7F1FF1307D77FD44518
:100B50007D8F9C49D58F94458606D58FD98F1CC52E
:100B60005C55370710FF7D177D8F83C74501FD1743
:100B700093F7F70FD207D98F5CD582801C4589C5C2
:100B800093E717001CC58280F99BEDBF1C4589C502
:100B900093E707101CC5828093F7F7EFE5BF1C456C
:100BA00093E787001CC5828008450D8105898280F6
:100BB0001C4593E747001CC58280084509810589CB
:100BC0008280A54763F8B704138765FF9317170062
:100BD0008322C500BA971D433313F3001343F3FF79
:100BE00033735300B397F600B3E767005CC59947CA
:100BF00063E3C7047D16931726003E965859FD47B8
:100C0000B397C70093C7F7FFF98FB395C500DD8D84
:100C10004CD982809397150003230501AE971D4799
:100C20003317F7001347F7FF33776700B397F600E2
:100C30005D8F18C96DBFB14763E2C7026516931790
:100C400026003E961859FD47B397C70093C7F7FF94
:100C5000F98FB395C500DD8D0CD982804D16131721
:100C6000260054553A96FD47B397C70093C7F7FF40
:100C7000F58FB395C500DD8D4CD582801C4591C59F
:100C800037071000D98F1CC582803707F0FF7D170A
:100C9000F98FD5BF5C41370700FA7D17F98F5CC12A
:100CA0005C41DD8D4CC18280B7F7FF1F03A5477CF7
:100CB00082801C4141677917F98F1CC123200500F0
:100CC0002322050023240500B70702402326050040
:100CD000138787006317E500D8431367F700D8C36D
:100CE00082801387C7016316E500D8431367070F97
:100CF000FDB7138707036318E500D843856693861D
:100D000006F0558FE9BF138747046315E500D84304
:100D1000BD66C5BF138787056316E500D843B706D0
:100D20000F00C5B71387C7066316E500D843B7069B
:100D3000F000C1BF13870708E314E5FAD843B706EC
:100D4000000FC1B71841E177BD0794517D8F9C45D5
:100D5000D58F9449D58FD449D58F944DD58FD44D07
:100D6000D58FD451D58F9455D58FD98F1CC1DC45E3
:100D70005CC19C411CC5DC415CC582801C4189C5AD
:100D800093E717001CC1828041677917F98FDDBF97
:100D90001C4101C6DD8D0CC1828093C5F5FFFD8D20
:100DA000DDBFB70702409C437D8D3335A0008280B4
:100DB000EFF20FAFFD376FF04FAFB7070240C8C378
:100DC00082809C45611122C226C013F7070113F3EC
:100DD000F70001C7D8413363E30003D6050013775A
:100DE000F60F29C7832305000147130480029304EB
:100DF00080048546B395E600B376B6006392D502CB
:100E000093122700BD46B396560093C6F6FFB3F380
:100E10007600B3125300B3E37200639787064CC9A0
:100E20000507A146E317D7FC232075001307F00F31
:100E30006378C70483234500A1461304800293040A
:100E400080040547B312D700337756006394E2025B
:100E5000139726000117BD45B395E50093C5F5FF2F
:100E6000B3F375003317E300B3637700639287022F
:100E7000232A550085064147E395E6FC23227500A9
:100E80001244824421018280E39C97F80CC949BF37
:100E9000E39297FE23285500F1BFEFF26FA01111E6
:100EA000835445002A8428002EC0DD22C246C20495
:100EB000C18093F404FCB7450F0093850524368563
:100EC000C20436C2C180EFF0EFA0458D42054181DA
:100ED0002312A400835704009246C207C183F99BE2
:100EE000C207C1832310F40082479043E1679387D0
:100EF000076A9315160063E0C7063685EFF08F9DED
:100F0000AA874205418191466373D50091471395A5
:100F100007014181231EA40083570400024793E781
:100F200017002310F400835704008356470003562C
:100F3000A700C207C183D18E93F757BFD58F231067
:100F4000F400835687008357C700D58F2314F4001D
:100F500071016FF08F95824703D56700B167FD1768
:100F60006310F502B2953685EFF0CF9642054181C8
:100F70009317450199E313651500A1675D8D59BF6E
:100F8000B387C5008E07B385C7003685EFF08F9411
:100F90004205418191675D8DE1BF8357050091C591
:100FA00093E717002310F5008280C207C183F99BE5
:100FB000C207C183C5BF8357050091C593E70710DA
:100FC0002310F5008280C207C18393F7F7EFC207B1
:100FD000C183FDB78357050091C593E70720231010
:100FE000F5008280C207C18393F7F7DFC207C18390
:100FF000FDB78357050091C593E707402310F5001F
:101000008280C207C18393F7F7BFC207C183FDB7D0
:101010002318B500828093F7E50F19C293E71500F6
:10102000C207C1832318F500828083574501035509
:10103000850142055D8D6D8D220521810D8D133554
:1010400015008280611102C002C293D7C5012AC275
:101050003EC08247A205A18199CB9247D1073EC2EB
:101060009247884321016D8D3335A00082809247DD
:10107000C181E107EDB723AEA1C28280B71602405D
:10108000DC4241771307F77FF98F5D8DC8C28280FC
:10109000EFF20F81371702405C4391462A84B18BEF
:1010A0006385D700A146638FD706B7376E01938754
:1010B00007601CC0B7160240DC42918313F7F700AB
:1010C000B707002093874704BA9783C50700DC421F
:1010D000184093F5F50F93F707083355B70081E7EC
:1010E0003A85EFE03FFF48C008C448C4B717024044
:1010F000DC43AD83FD8B13D737008A07F18BD98F83
:1011000093F637010D476373D700D11737070020D7
:1011100013070703BA9783C50700EFE0BFFB08C8B2
:101120006FE0BFF85C43B777DC02938707C051B725
:1011300099C5371702405C4B5D8D48CB8280B7174D
:101140000240D84B1345F5FF798DC8CB828099C5F5
:10115000371702401C4F5D8D08CF8280B7170240C1
:10116000984F1345F5FF798D88CF828099C5371741
:1011700002405C4F5D8D48CF8280B7170240D84F48
:101180001345F5FF798DC8CF828099C53717024086
:101190005C475D8D48C78280B7170240D84713452A
:1011A000F5FF798DC8C78280835705003737014026
:1011B000130707C0C207C1836306E5003707004075
:1011C0006317E50003D7250093F7F7F8D98F03D706
:1011D000650093F7F7CFC207C183D98F2310F500BD
:1011E00083D745002316F50283D705002314F502A3
:1011F000B7370140938707C06316F50083C78500A2
:101200002318F5028547231AF500828083570500CD
:1012100091C593E717002310F5008280C207C183B0
:10122000F99BC207C183C5BF8357050091C593E7EA
:1012300007082310F5008280C207C18393F7F7F7F0
:10124000C207C183FDB783574500C207C18393F727
:10125000F7F8C207C1832312F50083574500DD8DDF
:101260002312B5008280EFE2BFE383560501F577D4
:10127000FD17F58F83D6650003D7C5002111D58FE3
:101280002318F5008356C500FD779387379FF58FA8
:1012900083D645002A842EC0D58F83D68500D58F6E
:1012A00083D6A500D58F2316F50083574501C207C5
:1012B000C18393F7F7CF5D8F231AE5004800C93B40
:1012C000B74701409387078082456315F406C247FC
:1012D0000357C400139517003E9542070E0541873A
:1012E0003E958C41635A07048605EFE0BFDE930507
:1012F00040062AC0EFE01FDE8247931445009305A5
:1013000040063E85EFE0DFDF8357C400C207C18798
:1013100063D607020E059305400613052503EFE08B
:101320007FDB1D89C98CC204C18023149400610134
:101330006FE0BFD7B24769BF8A0545BF1205930565
:10134000400613052503EFE0FFD83D89E1BF81C9C1
:101350008357C5000967D98F2316F500828003578C
:10136000C500F977FD17F98FC5BF93F5F51F231257
:10137000B5008280035505006D8D3335A000828055
:10138000EFE21FD2B707002003A5C702B7157A0006
:1013900093850520EFE01FD41375F50F2381A1C4B9
:1013A00093175500898F8A073E950E052390A1C497
:1013B0006FE0BFCFEFE2DFCE2A84116511118545C2
:1013C000130505026933930700022310F100371556
:1013D00001408D473EC28A85E147130505403EC462
:1013E000EFF03F9E22C637440140B70708006C006B
:1013F000130504803ECA02C8231C0100AD35854593
:1014000013050480A93771016FE03FCAEFE25FC99D
:101410007111AE840144635DC402B7470140138774
:1014200007803A859305000432C0A937B7470140C9
:1014300013870780024675D533878400830507002C
:10144000138507800504C205C18105370246E1B74F
:10145000328511016FE07FC537070020130747056C
:101460001C43938681C43E956369D500938681E4CD
:1014700063E5A60008C33E858280FD57EDBF0111DC
:1014800022CC1354750126CA06CE9314950013740A
:10149000F40FA5809356F5014DCC9307F00F630C24
:1014A000F40CB70700048E04DD8C130414F8814794
:1014B000014613D57501139795001375F50F258314
:1014C000FD814DC51303F00F630D65020E07130573
:1014D00015F837030004336767002A948143130526
:1014E000140033C3B6002AC03D459A826362F510EA
:1014F00017250000130585DF8A07AA979C433E95B0
:1015000002851304F40F61EB93E727008943C1BF01
:1015100001431307F00FB7074000F2406244A607EB
:101520005E07A5831315F301D98FD2445D8D056144
:101530008280AE82BA841E8689476306F60A8D478A
:10154000E308F6FC85471683631EF61A01478147B8
:10155000E9B7B5E013D57501139795001375F50F2D
:101560009147014405462583FD8129FD19EB93E749
:1015700017008543ADB79DE8A1471304F00F094656
:101580000DBF3A8532C83EC62EC436C23AC0552475
:1015900002471303B5FF098C331767001304A4F83F
:1015A00081439246A245B247424615BFB147130454
:1015B000F00F0D46FDBD26852EC236C09D2C93072B
:1015C000B5FF1304A0F8B394F400098C81470146D9
:1015D00082469245F9BD93E737008D4309B78947A5
:1015E000B682E31EF6F416831307F00F814735B772
:1015F000C167FD17B3F3F400F98FC18041831E85E5
:10160000BE85EFE03FABAA82BA851E85EFE09FAAB8
:10161000AA83BE852685EFE0FFA9AA87BA8526851D
:10162000EFE05FA913D70201BE93BA9363F4F3000E
:10163000C1673E95C167FD17B3F4F300C204B3F26E
:10164000F200A6929394620093D30301B334900006
:1016500093D2A201AA93B3E2540093946300B3E43B
:1016600054009397440063D70700024493D71400B3
:101670008588DD8C1307F407635FE00293F774003D
:1016800099C793F7F40091466383D7009104939729
:10169000440063D80700B70700F8FD17FD8C130757
:1016A00004089307E00F63CBE70493976400A583D6
:1016B0001377F70F9DB58547B386E74011C76D4691
:1016C00001478147E34BD6E41304E40933948400D3
:1016D000B3D7D400B3348000C58F13F7770019C790
:1016E00013F7F70091466303D7009107139757004C
:1016F000634C07009A07A583014705B51307F00F50
:10170000814721BD0244BDB70547814739B513570D
:101710007501370680009307F6FF1377F70F9305DF
:10172000E007B3F6A7009357F501014563F4E50020
:1017300099C3828082809307E0097D55E3EBE7FE41
:1017400093055009B3E7C60063D7E5001307A7F672
:101750003395E7008280130560093307E54033D5F0
:10176000E7008280511106C422C215CD2A84D120FF
:101770009307E0093387A7409307600963C0E70434
:10178000A1469377F70F63D5A60061153314A40023
:1017900026042580260413559400A2401244DE0737
:1017A0005D8D310182800144260413559400A240CE
:1017B00012448147DE075D8D3101828093079009D5
:1017C00063DDE7009306B5019547B316D400898F12
:1017D000B336D0003354F400558C954763D6A70038
:1017E0009307B5FF3314F400B70600FCFD1693779A
:1017F00074003376D40085C39377F4009145638CED
:10180000B70011069317560063D707009307F00936
:10181000758E3387A7401314660025802604135560
:101820009400A24012449377F70FDE075D8D3101DB
:101830008280C167637EF5029307F00F13070002F1
:1018400063ECA70097270000938747AEAA9703C5CC
:1018500007003305A74082802181972700009387E6
:10186000E7ACAA9703C5070061473305A74082800C
:10187000B7070001636EF500618197270000938729
:10188000E7AAAA9703C5070021473305A74082802E
:10189000418197270000938767A9AA9703C507008E
:1018A00041473305A74082801301C1FD3ED02EC8B9
:1018B00032CA36CC3ACE97F7FF1F9387278022C4CF
:1018C000804326C206C6AA8409C41C4C99E322851B
:1018D000952B0C4414082686228536C0EF00F05460
:1018E000B24022449244130141028280411126C237
:1018F00006C622C42EC0AA8401C5184D11E399233F
:10190000984C804419E32685352B172700001307D0
:10191000E7B36313E402C0400357C400218B19C32B
:10192000184829EFA28526855D2A29C97D55B24030
:10193000224492444101828017270000130707B315
:101940006314E4008044C9BF17270000130707AEE3
:10195000E314E4FCC044C9B7824718C485073EC0FD
:1019600063580700144C634DD7022947638AE50288
:1019700018409306170014C02300B700824718448C
:1019800083C507007D17E9F918C463520702228650
:10199000A94526854920FD57E30AF5F8294541BFA9
:1019A000228626858D287D57E31AE5FC41B71C4029
:1019B0001387170018C029472380E700C5B797E7AA
:1019C000FF1F9387A76FAA8588430DB7130181F77F
:1019D0003EC3B707008093C7F7FF3ECC3EC6C17732
:1019E00093878720B2DCB6DE3AC13EC897E7FF1F77
:1019F0009387C76C2AC22ACA8843B4182E864C0023
:101A000086DA36C0EF00F012924723800700D650E6
:101A1000130181088280311122C626C406C8AA8714
:101A2000AE84328411C5184D01E72AC021298247AE
:101A300017270000130787A1631BE406C043184C57
:101A400018C40357C400218B59C3184849C3184808
:101A5000084093F6F40F93F4F40F198D5848634A35
:101A6000E5003E85A28536C23EC06D2C8247924677
:101A70002DE5184405057D1718C4184013061700F6
:101A800010C02300D70058486309A7000357C400BB
:101A9000058B01CB29476396E400A2853E85592436
:101AA0000DEDC24032442685A244510182801727A1
:101AB00000001307A79B6314E400804749B717276A
:101AC00000001307A796E31CE4F6C0478DBF3E85D0
:101AD000A2853EC0292082473DD9FD54D9B7411186
:101AE00097E7FF1F9387875D26C2844322C406C6FB
:101AF000AA862E8499C49C4C89E72AC026859926FB
:101B000082469727000093876794631AF402C040C7
:101B10000317C40093170701C18313F6870035EE3E
:101B200013F607010DEEA5479CC2136707042316A1
:101B3000E4007D55B24022449244410182809727BF
:101B400000009387A7926314F4008044D1B79727CD
:101B500000009387A78DE31DF4FAC04455BF918B15
:101B60009DC74C5899C9930744046386F500368590
:101B700036C02D2B8246232A04028357C400232219
:101B8000040093F7B7FD2316F4001C481CC08357CC
:101B9000C40093E787002316F4001C4881EF8357A5
:101BA000C4001307002093F707286385E700A28588
:101BB0003685B9298357C40013F7170005C75C4859
:101BC00023240400B307F0401CCC1C480145BDF39E
:101BD0008317C40013F7070831DF93E707042316C0
:101BE000F40081BF898B014791E3584818C4F1BFC5
:101BF00083D6C500311122C606C826C413F7860055
:101C0000AA872E8469EFD841634BE000B84163484E
:101C1000E0000145C2403244A24451018280585440
:101C20006DDB84431396360123A00700635E06062E
:101C300070480357C400118B19C75840198E585863
:101C400019C33840198E58540C5081463E853EC009
:101C500002977D578356C4008247631DE500904379
:101C600075476368C7063707402005073357C70025
:101C7000058B25C318482322040018C0139736018A
:101C8000635807007D576314E500984311E368C863
:101C90004C5884C3BDDD130744046384E5003E85CE
:101CA0003121232A0402B5B70C5001463E858546F2
:101CB0003EC002977D572A868247E31CE5F698438B
:101CC0002DDBF5466305D700D9466313D70484C3DB
:101CD00089B793E606042316D4007D5525BF98499D
:101CE0000DDB84418D8A98C1998C014691E2D049DF
:101CF00010C4E35090F2032384020C503A863E85D0
:101D0000A6863AC23EC00293824712476349A000AA
:101D10008357C40093E707042316F4007DBF2A9776
:101D2000898CC1BF9C49B9CF411122C406C62A84FF
:101D300011C51C4D81E72EC0312282459717000046
:101D40009387C770639BF5004C408397C50095C788
:101D500022852244B240410161BD9717000093875C
:101D6000E7706394F5000C44CDB797170000938794
:101D7000E76BE39CF5FC4C44C9BFB24022440145EB
:101D80004101828001458280511122C206C42A8409
:101D90002316B5002317C5002320050023220500C4
:101DA000232405002322050623280500232A0500F5
:101DB000232C0500214681451305C505EFE0EFB84A
:101DC00097170000938767F45CD0971700009387FC
:101DD000C7F61CD497170000938707FB5CD49717AE
:101DE00000009387C7FD00D01CD8A24012443101E7
:101DF000828097050000938525F389AA41111386F7
:101E0000F5FF22C41314160032940A0432940E040F
:101E10002EC09305440726C206C68926AA8409CD8A
:101E20008247232005003105232CF5FE88C41306C4
:101E300084068145EFE06FB1B2402244268592448A
:101E4000410182801C4DBDE3511106C422C2970797
:101E50000000938747FA1CD597E7FF1F9387472613
:101E60009C43232405042326050423280504631426
:101E7000F50085471CCD2A841D2848C022850528E9
:101E800008C422852D2048C4484001469145ED3DB7
:101E900008440546A545CD3D48440946C945ED35AC
:101EA00085471CCCA24012443101828082804111BE
:101EB00097E7FF1F9387C72022C4804326C206C628
:101EC0001C4CAA8499E32285B53F9307840480477C
:101ED000D8437D1763560700984331CF9C43C5BF55
:101EE0008316C400B1E6C1778507232204062320A8
:101EF000040023220400232404005CC423280400DB
:101F0000232A0400232C0400214681451305C4051F
:101F1000EFE0AFA3232A0402232C040223240404A9
:101F2000232604042285B240224492444101828047
:101F30001304840679BF914526853EC0C13582478A
:101F400088C349FDB1479CC00144E9BF111122CAB1
:101F500006CC26C8AA862E8613048504814719E478
:101F6000E2405244C2443E8571018280044458409C
:101F70007D17635407000040DDB703D5C4008545D5
:101F800063F3A5020395E400FD55630EB5003685A5
:101F9000A6853EC63AC436C232C00296B247224730
:101FA00092460246C98F93848406D9B7AE8783953B
:101FB000E5005971A6D286D6A2D4B28463DC0500AE
:101FC00083D7C70023A0060093F707088DEB93077C
:101FD000004005A81304F1006198228636C23EC075
:101FE000EF00706382479246E34C05FC5840BD67A2
:101FF000F98F7977BA9793B717009CC2C9BF930737
:102000000004B65026549CC00145965465618280F8
:1020100003D7C500211122C806CA26C6098B2E8403
:1020200001CF930774041CC01CC885475CC8D2400C
:102030004244B2446101828034005000AA84BD371A
:1020400092452AC02685192A01ED8317C40013F78B
:10205000072071FFF19B93E727002316F400D1B707
:1020600017070000130727D998D40357C40008C0E6
:1020700008C8136707082316E400124758C8224708
:1020800011CF8315E4002685EF00905B01C98357CB
:10209000C400F19B93E717002316F4008357C40094
:1020A0000247B364F7002316940051B7DDC583A738
:1020B000C5FF511122C206C426C01384C5FF63D3D5
:1020C00007003E94AA84EF00B07097E7FF1F938744
:1020D00067FF9C4391EF2322040097E7FF1F23A390
:1020E00087FE1244A2402685824431016F00706E43
:1020F000637EF40014403307D4006396E7009843EE
:10210000DC43369718C05CC0C9BFBA87D84319C32F
:10211000E37DE4FE94433386D700631F86001040BE
:10212000B29694C33386D700E31DC7FA10435843D1
:10213000B29694C3D8C375B76375C400B1479CC049
:102140004DB71040B306C4006316D700144358437C
:10215000B29614C058C0C0C369B78280411126C26C
:1021600093843500F19806C622C4A104B14763F9EF
:10217000F404B14463E8B4042AC0EF007065138727
:10218000818014438247368431E41387C180184329
:1021900009EB3E8581453EC0EF00503423A6A18067
:1021A00082473E85A6853EC0EF0050337D5782476B
:1021B0006316E506314798C33E85EF00906129A07C
:1021C000E3DA04FAB1471CC10145B240224492440B
:1021D000410182801840058F634F07022D466376C8
:1021E000E60018C03A9404C031A0584063938602B8
:1021F00023A4E1803E85EF00D05D1305B4001307F2
:1022000044006199B307E540E9D33E94098F18C0B3
:102210006DBFD8C2C5B7A2864040BDB71304350014
:102220007198E30285FCB305A4403E853EC0EF00F3
:10223000F02A7D578247E318E5FAADBF03A3850076
:10224000111126C806CC22CA32C2AE8463E46608E5
:1022500003D6C5001377064825CFAA82C848804018
:102260008C49131715002A971355F701B307B4408B
:102270002A97138516003EC0135417403E9563738A
:10228000A4002A841376064036C63DC61685A2856C
:1022900016C4E935A242B246314735CD02468C48D4
:1022A00036C62AC4EF00B04003D6C4002243B2466B
:1022B0001376F6B7136606082396C400824723A850
:1022C0006400C0C83E931D8C23A0640080C4368384
:1022D00063F366003683924588401A861AC0EF0081
:1022E000904A9844024301453307674098C4984098
:1022F0003A9323A064000DA81685228616C4EF0029
:10230000704D2A83A242B24655F98C48168516C0F4
:10231000713B8242314723A0E20003D7C4007D55C0
:10232000136707042396E400E2405244C24471015B
:10233000828003D7C500130181F722C1A6DE93076F
:10234000F10106C32AC22EC013770708B28413F422
:1023500087FF15CB984905EB9305000436C6FD3B76
:102360008247B24688C388CB19E91247B1477D55E9
:102370001CC39A400A44F6541301810882808247A4
:1023800013070004D8CB13070002A30CE4001307C3
:102390000003232A0400230DE40036CA268713060F
:1023A00050028346070099C26397C60A33039740D9
:1023B00063010302824512459A8626863AC81AC6E8
:1023C000B53DFD56630BD51C5448324342479A969F
:1023D00054C8834607006382061C930417007D5788
:1023E000232004002326040058C023240400A30152
:1023F0000404232C040483C50400154617150000AB
:102400001305C508EF00102913871400144031E5A7
:1024100013F6060109C613060002A301C40413F64D
:10242000860009C61306B002A301C40483C50400D4
:102430001306A0026380C5045444268781452545C0
:102440000346070013031700130606FD6379C5064C
:1024500095C954C405A80507A9B7171600001306A7
:10246000E6023306C54005453315C500C98E14C0C4
:10247000BA8451B752469305460010422ECA6349AA
:10248000060250C4034607009306E0026313D60613
:10249000034617009306A002631ED602D246090720
:1024A00013864600944232CA63C4060254C091A007
:1024B0003306C04093E6260050C414C0E1B713971A
:1024C000260036970607B306C70085451A878DBFD5
:1024D000FD56E9BF050723220400814581462545B5
:1024E0000346070013031700130606FD637BC506AA
:1024F000D5FD834507000D4617150000130585F926
:102500003AC6EF003019324711CD97160000938676
:1025100066F8158D93060004B396A60008400507DB
:10252000558D08C08345070019461715000013058F
:10253000A5F693041700230CB400EF00B01525C9CD
:1025400017E7FFFF130707AC05EB1440524793F65C
:1025500006108DC211073ACA5848A2473E9758C87C
:1025600035BD1397260036970607B306C700854585
:102570001A87BDB72107C5B7024612455808970606
:1025800000009386E6CBA28597000000E7000000DC
:102590002AC4A2477D57E391E7FC82477D5503D7C4
:1025A000C70013770704E31607DC4848D9B302468F
:1025B0001245580897060000938686C8A285B1295F
:1025C000C1BF1C46FD171CC663DA0700184E63C561
:1025D000E700A9476394F5006FF0EFC31C422E8516
:1025E0001387170018C22380B7008280311122C6DA
:1025F00026C406C8AA872E873284B304D600631483
:102600009400014531A8834504003A863E853AC2CC
:102610003EC0453FFD56050482471247E311D5FEF3
:10262000C2403244A24451018280130181F722C189
:10263000A6DE9307F10106C32AC032C22E8493F4AA
:1026400087FF19C5184D09E736C6EFF0AFFFB24650
:1026500017170000130787DF6317E40E8247C04394
:102660000357C400218B630207101848630F070E3D
:1026700013070002A38CE4001307000323AA04003D
:10268000238DE40036CA1247130650028346070022
:1026900099C2639BC60E92473303F740630103025E
:1026A00002459A863E86A2853AC81AC68137FD56EB
:1026B000630DD520D448324342479A96D4C8834606
:1026C000070063840620130317007D5723A004002E
:1026D00023A60400D8C023A40400A381040423ACCF
:1026E000040483450300154617150000130505DA99
:1026F0001AC2EF00207A124394401307130059E5E1
:1027000013F6060109C613060002A381C40413F6DA
:10271000860009C61306B002A381C40483450300E2
:102720001306A0026381C508D4441A878145254554
:102730000346070013031700130606FD637AC50A54
:10274000BDC9D4C48DA817170000130727D263157D
:10275000E4008247804729B717170000130707CD09
:10276000E310E4F08247C047E5BD0245A28536C6C6
:10277000EFF0EFB6B246E30D05EE7D559A400A4400
:10278000F654130181088280050709B71716000067
:102790001306C6CF3306C54005453315C500C98E9F
:1027A00094C03A833DBF52469305460010422ECA5C
:1027B00063490602D0C4034607009306E002631390
:1027C000D606034617009306A002631ED602D24621
:1027D000090713864600944232CA63C40602D4C075
:1027E00091A03306C04093E62600D0C494C0E1B760
:1027F0001397260036970607B306C70085451A8744
:1028000005BFFD56E9BF050723A2040081458146A7
:1028100025450346070013031700130606FD637AD8
:10282000C506D5FD834507000D46171500001305A5
:1028300065C63AC28525124711CD971600009386CA
:1028400066C5158D93060004B396A600884005075B
:10285000558D88C083450700930717001946171543
:102860000000130565C33EC2238CB400252535C581
:1028700017D7FFFF1307077905EB9440524793F6EC
:1028800006108DC211073ACAD848A2473E97D8C849
:10289000DDBB1397260036970607B306C7008545AC
:1028A0001A8785BF2107C5B702455808970600005B
:1028B000938606D42286A68597000000E7000000D4
:1028C0002AC4A2477D57E391E7FC0357C40013775E
:1028D0000704E31407EAC84855B5024558089706A7
:1028E00000009386E6D02286A685052AD1BF011175
:1028F00026CA3283B6849045944922CC06CE2A84D7
:10290000AE8763D3C600B2862320D30003C6370444
:1029100001C685062320D300944393F6060291C690
:102920008326030089062320D30083A20700938314
:10293000970193F2620063830206904383C63704D3
:1029400013760602B336D00041EA13863704A68513
:1029500022851AC43EC23AC00297FD566308D506C6
:10296000924722431145944303260300CC47998A9A
:10297000014302476397A6003383C54063530300B6
:1029800001439447904B6354D600918E3693814215
:10299000E9076312530601451DA88502D4470326A3
:1029A0000300918EE3DBD2F885461E86A68522853C
:1029B0001AC83EC616C41EC23AC00297FD56024748
:1029C0009243A242B2474243E319D5FC7D55F240FF
:1029D0006244D24405618280B385D70013050003A9
:1029E000A381A50483C55704138616003E96890665
:1029F000A301B60499BF85463E86A685228516C6E4
:102A00001AC43EC23AC00297FD56E301D5FCB24259
:102A10002243924785020247ADBF130141FD22D2F6
:102A200006D426D032C203C6850136C42AC0930616
:102A300090062E8493823504630DD60263E2C606A7
:102A4000930680056301D61A63EDC600630A062269
:102A500093063004630CD60A930424042301C404AF
:102A60007DA8930630066303D60A93064006E31555
:102A7000D6FE1440084313F606089305450055C2D8
:102A800014410CC363D806001307D002B306D0402C
:102A9000A301E40417160000130686A029475DA8C9
:102AA00093060007630DD61663E5C6029306E0069B
:102AB0006304D61A9306F006E310D6FA0C401443CA
:102AC00013F30508138546006305030608C3944203
:102AD000BDA093065007E303D6FE93068007630468
:102AE000D61493063007E319D6F61443138646002E
:102AF00010C38442D04181452685692E19C1058DB8
:102B000048C0584018C8A301040475A8144393048E
:102B100024041386460010C398422301E4040547A9
:102B2000D5B713F6060414410CC329DEC206C186CC
:102B300091BF93F5050408C3D9D983D606001307BE
:102B4000F0066303E6101716000013066695294782
:102B5000A30104044C400CC463C5050008406D99F2
:102B600008C099E296848DCD9684BA85368516CCB8
:102B700032CA3AC836C6EFD0AFD852464247B246FC
:102B8000329583450500FD1436852380B400BA854F
:102B9000EFD04FD4B24642475246E24263FCE60AC7
:102BA000A146631ED7001840058B11CB544018482E
:102BB0006347D70013070003A38FE4FEFD14B3821D
:102BC0009240232854002247924602457008A2856D
:102BD000393B7D57631AE50A7D55A2501254825441
:102BE0001301C1028280A382C504171600001306D8
:102BF000268B0C40084313F3050814411105630D9F
:102C0000030208C313F7150001C793E505020CC0C2
:102C100041479DFE0C4093F5F5FD0CC015BF944156
:102C200093E6060294C193068007A302D404171604
:102C300000001306268875BF13F3050408C3E303D9
:102C400003FCC206C1827DBF17160000130646852D
:102C50002147FDBDAA8611BF90411443CC4913738F
:102C60000608138546006306030008C398420CC398
:102C700001A808C313760604984275DA2310B7003A
:102C800023280400968481B7144892450245A24740
:102C9000268682977D57E301E5F41840098B1DEBEA
:102CA00072474844E35BE5F23A8505BF9245024529
:102CB000A24785461A863AC81AC68297FD56E30D82
:102CC000D5F042473243050754447246918EE34F94
:102CD000D7FCF9B7014713039401FDB7511122C284
:102CE0002A842E8523A201C406C4EFE0EFF6FD5727
:102CF0006317F500938741C49C4391C31CC0A24055
:102D0000124431018280511122C22E848395E50044
:102D100006C4212E634905007C48AA977CC8A240BE
:102D20001244310182808357C4007D777D17F98F6B
:102D30002316F400EDB783D7C500311122C626C48F
:102D400006C893F70710AA842E843283B68291CBEB
:102D50008395E50036C232C089460146312292424F
:102D600002438357C4007D777D17F98F2316F40043
:102D70008315E4003244C2402685A24496861A8612
:102D800051013DA8511122C22E848395E50006C44D
:102D9000E128FD570357C400631BF500FD77FD17BD
:102DA000F98F2316F400A240124431018280856716
:102DB000D98F2316F40068C8FDB78395E50005A8F0
:102DC000511122C22A842E85B285368623A201C4DF
:102DD00006C4EFE0AFE3FD576317F500938741C4E6
:102DE0009C4391C31CC0A240124431018280511106
:102DF00022C22A842E8523A201C406C4BD24FD5705
:102E00006317F500938741C49C4391C31CC0A24043
:102E1000124431018280511122C22A842E85B2854A
:102E200023A201C406C4812CFD576317F5009387C4
:102E300041C49C4391C31CC0A24012443101828012
:102E4000511122C22A842E8523A201C406C4152C46
:102E5000FD576317F500938741C49C4391C31CC081
:102E6000A240124431018280511122C22A842E854F
:102E7000B285368623A201C406C4112CFD57631700
:102E8000F500938741C49C4391C31CC0A2401244E7
:102E90003101828093F5F50F2A966314C500014530
:102EA000828083470500E38DB7FE0505FDB7B3C7F4
:102EB000A5008D8B3307C50081E78D4763E9C70205
:102EC000AA876371E50C83C6050085078505A38F76
:102ED000D7FEE3EAE7FE828083C605008507850505
:102EE000A38FD7FEE3EAE7FE0244110182809376C6
:102EF0003500AA8791CA83C6050085078505A38F7B
:102F0000D7FE93F63700FDB79376C7FF138606FE0C
:102F100063F5C706711122C0C04903A3050083A34E
:102F20008500C0CB804D23A0670003A3450080CF60
:102F3000C04D23A2670083A2C50003A305019385AA
:102F40004502C0CF03A4C5FF23A4770023A65700E2
:102F500023A867009387470223AE87FEE3EEC7FAF4
:102F6000E3F2D7F890419107910523AEC7FECDBF9C
:102F700090419107910523AEC7FEE3EBD7FEE3E452
:102F8000E7F48280828063F3A504B386C500637F83
:102F9000D5029345F6FF8147FD176393F5008280C4
:102FA0003387F600034307003387C7002A972300BF
:102FB0006700DDB73387F500834607003307F50068
:102FC00085072300D700E317F6FE82808147E5BF1F
:102FD0008280828081E5B2856FF04F98311106C8FA
:102FE00022C626C411EAEFF06F8C8147C2403244FA
:102FF000A2443E85510182802E8432C0AA84A12839
:103000000246A287E374C5FEB285268532C2EFF080
:10301000EF94AA8761DD1246A2852AC0493DA285A8
:103020002685EFF0AF888247D1B7511122C22A849A
:103030002E85B285368623A201C406C4B928FD5761
:103040006317F500938741C49C4391C31CC0A24001
:1030500012443101828083A7C5FF1385C7FF63D562
:103060000700AA959C413E9582809307800523A284
:10307000F1C47D5582809307800523A2F1C47D555C
:1030800082809307800523A2F1C4014582809307C3
:10309000800523A2F1C47D5582809307800523A279
:1030A000F1C47D55828000004EE26D426B480944B8
:1030B0007CEF0D429D73CE400000803C53797374C9
:1030C000656D436C6B3A25640D0A000043686970B6
:1030D00049443A253038780D0A0000004F4C4544E9
:1030E000204144430000000025643A2533642E2526
:1030F0003032640025643B20000000000D00000019
:10310000000000000000004F00000007000700144E
:103110007F147F14242A7F2A1223130864623649FD
:103120005522500005030000001C224100004122EE
:103130001C0014083E081408083E0808005030001F
:103140000008080808080060600000201008040259
:103150003E5149453E00427F40004261514946216F
:1031600041454B311814127F1027454545393C4ADB
:10317000494930017109050336494949360649492B
:10318000291E003636000000563600000814224181
:1031900000141414141400412214080201510906E9
:1031A000324979413E7E1111117E7F494949363EAF
:1031B000414141227F4141221C7F494949417F09C8
:1031C0000909013E4149497A7F0808087F00417F8B
:1031D00041002040413F017F081422417F40404090
:1031E000407F020C027F7F0408107F3E4141413E38
:1031F0007F090909063E4151215E7F09192946468A
:103200004949493101017F01013F4040403F1F20B2
:1032100040201F3F4038403F631408146307087084
:1032200008076151494543007F41410002040810ED
:10323000200041417F000402010204404040404020
:10324000000102040020545454787F484444383824
:1032500044444420384444487F3854545418087E29
:103260000901020C5252523E7F0804047800447D4A
:1032700040002040443D007F1028440000417F4032
:10328000007C041804787C080404783844444438EA
:103290007C14141408081414187C7C0804040848CE
:1032A00054545420043F4440203C4040207C1C2087
:1032B00040201C3C4030403C44281028440C5050D6
:1032C000503C4464544C44000836410000007F00E8
:1032D00000004136080008082A1C08081C2A0808B3
:1032E000000000000000000008E3FFFF4CE2FFFFC9
:1032F0004CE2FFFF4AE2FFFF50E2FFFF50E2FFFF18
:1033000028E2FFFF4AE2FFFF50E2FFFF28E2FFFF53
:1033100050E2FFFF4AE2FFFFF6E2FFFFF6E2FFFFA7
:10332000F6E2FFFF28E2FFFF0001020203030303AE
:103330000404040404040404050505050505050545
:103340000505050505050505060606060606060625
:10335000060606060606060606060606060606060D
:1033600006060606060606060707070707070707F5
:1033700007070707070707070707070707070707DD
:1033800007070707070707070707070707070707CD
:1033900007070707070707070707070707070707BD
:1033A00007070707070707070808080808080808A5
:1033B000080808080808080808080808080808088D
:1033C000080808080808080808080808080808087D
:1033D000080808080808080808080808080808086D
:1033E000080808080808080808080808080808085D
:1033F000080808080808080808080808080808084D
:10340000080808080808080808080808080808083C
:10341000080808080808080808080808080808082C
:10342000080808080808080800000000000000005C
:10343000000000000000000000000000000000008C
:10344000000000000000000000000000000000007C
:10345000000000000000000000000000000000006C
:10346000000000000000000000000000000000005C
:10347000000000000000000000000000000000004C
:103480000000000000000000232D302B2000000071
:10349000686C4C0065666745464700003031323342
:1034A0003435363738394142434445460000000040
:1034B00030313233343536373839616263646566AA
:0434C0000000000008
:1034C40000AED580A81FD300408D142000A1C8DA17
:1034D40012817FD9F1DB20A4A62EAF0001020304E0
:1034E400050607080102030405060708006CDC0250
:1034F4000204060804080C1008101820102030409C
:103504002040608001020304050607080102030449
:1035140005060708000500200000000048340000EC
:10352400683400002834000000000000000000009F
:103534000000000000000000000000000000000087
:103544000000000000000000000000000000000077
:103554000000000000000000000000000000000067
:103564000000000000000000000000000000000057
:103574000000000000000000580000205800002057
:00000001FF
